{
  "contractName": "PortfolioToken",
  "abi": [
    {
      "inputs": [
        {
          "internalType": "int256",
          "name": "_strikePrice",
          "type": "int256"
        },
        {
          "internalType": "string",
          "name": "_name",
          "type": "string"
        },
        {
          "internalType": "string",
          "name": "_symbol",
          "type": "string"
        }
      ],
      "stateMutability": "nonpayable",
      "type": "constructor"
    },
    {
      "anonymous": false,
      "inputs": [
        {
          "indexed": true,
          "internalType": "address",
          "name": "owner",
          "type": "address"
        },
        {
          "indexed": true,
          "internalType": "address",
          "name": "spender",
          "type": "address"
        },
        {
          "indexed": false,
          "internalType": "uint256",
          "name": "value",
          "type": "uint256"
        }
      ],
      "name": "Approval",
      "type": "event"
    },
    {
      "anonymous": false,
      "inputs": [
        {
          "indexed": true,
          "internalType": "address",
          "name": "from",
          "type": "address"
        },
        {
          "indexed": true,
          "internalType": "address",
          "name": "to",
          "type": "address"
        },
        {
          "indexed": false,
          "internalType": "uint256",
          "name": "value",
          "type": "uint256"
        }
      ],
      "name": "Transfer",
      "type": "event"
    },
    {
      "inputs": [
        {
          "internalType": "uint256",
          "name": "",
          "type": "uint256"
        }
      ],
      "name": "allAssets",
      "outputs": [
        {
          "internalType": "address",
          "name": "",
          "type": "address"
        }
      ],
      "stateMutability": "view",
      "type": "function",
      "constant": true
    },
    {
      "inputs": [
        {
          "internalType": "address",
          "name": "owner",
          "type": "address"
        },
        {
          "internalType": "address",
          "name": "spender",
          "type": "address"
        }
      ],
      "name": "allowance",
      "outputs": [
        {
          "internalType": "uint256",
          "name": "",
          "type": "uint256"
        }
      ],
      "stateMutability": "view",
      "type": "function",
      "constant": true
    },
    {
      "inputs": [
        {
          "internalType": "address",
          "name": "spender",
          "type": "address"
        },
        {
          "internalType": "uint256",
          "name": "amount",
          "type": "uint256"
        }
      ],
      "name": "approve",
      "outputs": [
        {
          "internalType": "bool",
          "name": "",
          "type": "bool"
        }
      ],
      "stateMutability": "nonpayable",
      "type": "function"
    },
    {
      "inputs": [
        {
          "internalType": "address",
          "name": "account",
          "type": "address"
        }
      ],
      "name": "balanceOf",
      "outputs": [
        {
          "internalType": "uint256",
          "name": "",
          "type": "uint256"
        }
      ],
      "stateMutability": "view",
      "type": "function",
      "constant": true
    },
    {
      "inputs": [],
      "name": "decimals",
      "outputs": [
        {
          "internalType": "uint8",
          "name": "",
          "type": "uint8"
        }
      ],
      "stateMutability": "view",
      "type": "function",
      "constant": true
    },
    {
      "inputs": [
        {
          "internalType": "address",
          "name": "spender",
          "type": "address"
        },
        {
          "internalType": "uint256",
          "name": "subtractedValue",
          "type": "uint256"
        }
      ],
      "name": "decreaseAllowance",
      "outputs": [
        {
          "internalType": "bool",
          "name": "",
          "type": "bool"
        }
      ],
      "stateMutability": "nonpayable",
      "type": "function"
    },
    {
      "inputs": [
        {
          "internalType": "address",
          "name": "spender",
          "type": "address"
        },
        {
          "internalType": "uint256",
          "name": "addedValue",
          "type": "uint256"
        }
      ],
      "name": "increaseAllowance",
      "outputs": [
        {
          "internalType": "bool",
          "name": "",
          "type": "bool"
        }
      ],
      "stateMutability": "nonpayable",
      "type": "function"
    },
    {
      "inputs": [
        {
          "internalType": "address",
          "name": "",
          "type": "address"
        }
      ],
      "name": "isResource",
      "outputs": [
        {
          "internalType": "bool",
          "name": "",
          "type": "bool"
        }
      ],
      "stateMutability": "view",
      "type": "function",
      "constant": true
    },
    {
      "inputs": [],
      "name": "name",
      "outputs": [
        {
          "internalType": "string",
          "name": "",
          "type": "string"
        }
      ],
      "stateMutability": "view",
      "type": "function",
      "constant": true
    },
    {
      "inputs": [],
      "name": "symbol",
      "outputs": [
        {
          "internalType": "string",
          "name": "",
          "type": "string"
        }
      ],
      "stateMutability": "view",
      "type": "function",
      "constant": true
    },
    {
      "inputs": [],
      "name": "totalSupply",
      "outputs": [
        {
          "internalType": "uint256",
          "name": "",
          "type": "uint256"
        }
      ],
      "stateMutability": "view",
      "type": "function",
      "constant": true
    },
    {
      "inputs": [
        {
          "internalType": "address",
          "name": "recipient",
          "type": "address"
        },
        {
          "internalType": "uint256",
          "name": "amount",
          "type": "uint256"
        }
      ],
      "name": "transfer",
      "outputs": [
        {
          "internalType": "bool",
          "name": "",
          "type": "bool"
        }
      ],
      "stateMutability": "nonpayable",
      "type": "function"
    },
    {
      "inputs": [
        {
          "internalType": "address",
          "name": "sender",
          "type": "address"
        },
        {
          "internalType": "address",
          "name": "recipient",
          "type": "address"
        },
        {
          "internalType": "uint256",
          "name": "amount",
          "type": "uint256"
        }
      ],
      "name": "transferFrom",
      "outputs": [
        {
          "internalType": "bool",
          "name": "",
          "type": "bool"
        }
      ],
      "stateMutability": "nonpayable",
      "type": "function"
    },
    {
      "inputs": [
        {
          "internalType": "address",
          "name": "_account",
          "type": "address"
        },
        {
          "internalType": "uint256",
          "name": "_quantity",
          "type": "uint256"
        }
      ],
      "name": "mint",
      "outputs": [],
      "stateMutability": "nonpayable",
      "type": "function"
    },
    {
      "inputs": [
        {
          "internalType": "address",
          "name": "_assetAddress",
          "type": "address"
        },
        {
          "internalType": "uint8",
          "name": "_weight",
          "type": "uint8"
        },
        {
          "internalType": "string",
          "name": "_name",
          "type": "string"
        },
        {
          "internalType": "string",
          "name": "_symbol",
          "type": "string"
        }
      ],
      "name": "addAsset",
      "outputs": [],
      "stateMutability": "nonpayable",
      "type": "function"
    },
    {
      "inputs": [
        {
          "internalType": "address",
          "name": "_assetAddress",
          "type": "address"
        },
        {
          "internalType": "uint8",
          "name": "_weight",
          "type": "uint8"
        }
      ],
      "name": "editAsset",
      "outputs": [],
      "stateMutability": "nonpayable",
      "type": "function"
    },
    {
      "inputs": [
        {
          "internalType": "address",
          "name": "_assetAddress",
          "type": "address"
        }
      ],
      "name": "removeAsset",
      "outputs": [],
      "stateMutability": "nonpayable",
      "type": "function"
    },
    {
      "inputs": [],
      "name": "getAssets",
      "outputs": [
        {
          "internalType": "address[]",
          "name": "",
          "type": "address[]"
        }
      ],
      "stateMutability": "view",
      "type": "function",
      "constant": true
    },
    {
      "inputs": [
        {
          "internalType": "address",
          "name": "_assetAddress",
          "type": "address"
        }
      ],
      "name": "getAssetInfo",
      "outputs": [
        {
          "internalType": "string",
          "name": "name",
          "type": "string"
        },
        {
          "internalType": "string",
          "name": "symbol",
          "type": "string"
        },
        {
          "internalType": "uint8",
          "name": "weight",
          "type": "uint8"
        },
        {
          "internalType": "uint256",
          "name": "timeStamp",
          "type": "uint256"
        }
      ],
      "stateMutability": "view",
      "type": "function",
      "constant": true
    }
  ],
  "bytecode": "0x60806040523480156200001157600080fd5b5060405162002630380380620026308339818101604052810190620000379190620001fc565b8181816003908051906020019062000051929190620000da565b5080600490805190602001906200006a929190620000da565b506012600560006101000a81548160ff021916908360ff160217905550505033600560016101000a81548173ffffffffffffffffffffffffffffffffffffffff021916908373ffffffffffffffffffffffffffffffffffffffff1602179055508260098190555050505062000339565b828054600181600116156101000203166002900490600052602060002090601f016020900481019282601f106200011d57805160ff19168380011785556200014e565b828001600101855582156200014e579182015b828111156200014d57825182559160200191906001019062000130565b5b5090506200015d919062000161565b5090565b6200018691905b808211156200018257600081600090555060010162000168565b5090565b90565b6000815190506200019a816200031f565b92915050565b600082601f830112620001b257600080fd5b8151620001c9620001c382620002b2565b62000284565b91508082526020830160208301858383011115620001e657600080fd5b620001f3838284620002e9565b50505092915050565b6000806000606084860312156200021257600080fd5b6000620002228682870162000189565b935050602084015167ffffffffffffffff8111156200024057600080fd5b6200024e86828701620001a0565b925050604084015167ffffffffffffffff8111156200026c57600080fd5b6200027a86828701620001a0565b9150509250925092565b6000604051905081810181811067ffffffffffffffff82111715620002a857600080fd5b8060405250919050565b600067ffffffffffffffff821115620002ca57600080fd5b601f19601f8301169050602081019050919050565b6000819050919050565b60005b8381101562000309578082015181840152602081019050620002ec565b8381111562000319576000848401525b50505050565b6200032a81620002df565b81146200033657600080fd5b50565b6122e780620003496000396000f3fe608060405234801561001057600080fd5b50600436106101215760003560e01c80634a5e42b1116100ad578063a457c2d711610071578063a457c2d714610330578063a9059cbb14610360578063afad2e1614610390578063b96eb755146103c3578063dd62ed3e146103df57610121565b80634a5e42b114610278578063578e5c221461029457806367e4ac2c146102c457806370a08231146102e257806395d89b411461031257610121565b8063207a9485116100f4578063207a9485146101ae57806323b872dd146101de578063313ce5671461020e578063395093511461022c57806340c10f191461025c57610121565b806306fdde0314610126578063095ea7b31461014457806318160ddd146101745780631d88a5a614610192575b600080fd5b61012e61040f565b60405161013b9190611ef8565b60405180910390f35b61015e600480360381019061015991906119da565b6104b1565b60405161016b9190611edd565b60405180910390f35b61017c6104cf565b604051610189919061206d565b60405180910390f35b6101ac60048036038101906101a79190611a16565b6104d9565b005b6101c860048036038101906101c39190611926565b610587565b6040516101d59190611edd565b60405180910390f35b6101f860048036038101906101f3919061198b565b6105a7565b6040516102059190611edd565b60405180910390f35b610216610680565b6040516102239190612088565b60405180910390f35b610246600480360381019061024191906119da565b610697565b6040516102539190611edd565b60405180910390f35b610276600480360381019061027191906119da565b61074a565b005b610292600480360381019061028d9190611926565b610758565b005b6102ae60048036038101906102a99190611ae5565b610839565b6040516102bb9190611ea0565b60405180910390f35b6102cc610875565b6040516102d99190611ebb565b60405180910390f35b6102fc60048036038101906102f79190611926565b610903565b604051610309919061206d565b60405180910390f35b61031a61094b565b6040516103279190611ef8565b60405180910390f35b61034a600480360381019061034591906119da565b6109ed565b6040516103579190611edd565b60405180910390f35b61037a600480360381019061037591906119da565b610aba565b6040516103879190611edd565b60405180910390f35b6103aa60048036038101906103a59190611926565b610ad8565b6040516103ba9493929190611f1a565b60405180910390f35b6103dd60048036038101906103d89190611a52565b610d3c565b005b6103f960048036038101906103f4919061194f565b610fe2565b604051610406919061206d565b60405180910390f35b606060038054600181600116156101000203166002900480601f0160208091040260200160405190810160405280929190818152602001828054600181600116156101000203166002900480156104a75780601f1061047c576101008083540402835291602001916104a7565b820191906000526020600020905b81548152906001019060200180831161048a57829003601f168201915b5050505050905090565b60006104c56104be611069565b8484611071565b6001905092915050565b6000600254905090565b6104e161123c565b80600660008473ffffffffffffffffffffffffffffffffffffffff1673ffffffffffffffffffffffffffffffffffffffff16815260200190815260200160002060000160006101000a81548160ff021916908360ff16021790555042600660008473ffffffffffffffffffffffffffffffffffffffff1673ffffffffffffffffffffffffffffffffffffffff168152602001908152602001600020600101819055505050565b60086020528060005260406000206000915054906101000a900460ff1681565b60006105b48484846112ce565b610675846105c0611069565b6106708560405180606001604052806028815260200161226560289139600160008b73ffffffffffffffffffffffffffffffffffffffff1673ffffffffffffffffffffffffffffffffffffffff1681526020019081526020016000206000610626611069565b73ffffffffffffffffffffffffffffffffffffffff1673ffffffffffffffffffffffffffffffffffffffff168152602001908152602001600020546115639092919063ffffffff16565b611071565b600190509392505050565b6000600560009054906101000a900460ff16905090565b60006107406106a4611069565b8461073b85600160006106b5611069565b73ffffffffffffffffffffffffffffffffffffffff1673ffffffffffffffffffffffffffffffffffffffff16815260200190815260200160002060008973ffffffffffffffffffffffffffffffffffffffff1673ffffffffffffffffffffffffffffffffffffffff168152602001908152602001600020546115b890919063ffffffff16565b611071565b6001905092915050565b610754828261160d565b5050565b61076061123c565b600660008273ffffffffffffffffffffffffffffffffffffffff1673ffffffffffffffffffffffffffffffffffffffff168152602001908152602001600020600080820160006101000a81549060ff021916905560018201600090556002820160006107cc91906117a6565b6003820160006107dc91906117a6565b50506000600860008373ffffffffffffffffffffffffffffffffffffffff1673ffffffffffffffffffffffffffffffffffffffff16815260200190815260200160002060006101000a81548160ff02191690831515021790555050565b6007818154811061084657fe5b906000526020600020016000915054906101000a900473ffffffffffffffffffffffffffffffffffffffff1681565b606060078054806020026020016040519081016040528092919081815260200182805480156108f957602002820191906000526020600020905b8160009054906101000a900473ffffffffffffffffffffffffffffffffffffffff1673ffffffffffffffffffffffffffffffffffffffff16815260200190600101908083116108af575b5050505050905090565b60008060008373ffffffffffffffffffffffffffffffffffffffff1673ffffffffffffffffffffffffffffffffffffffff168152602001908152602001600020549050919050565b606060048054600181600116156101000203166002900480601f0160208091040260200160405190810160405280929190818152602001828054600181600116156101000203166002900480156109e35780601f106109b8576101008083540402835291602001916109e3565b820191906000526020600020905b8154815290600101906020018083116109c657829003601f168201915b5050505050905090565b6000610ab06109fa611069565b84610aab8560405180606001604052806025815260200161228d6025913960016000610a24611069565b73ffffffffffffffffffffffffffffffffffffffff1673ffffffffffffffffffffffffffffffffffffffff16815260200190815260200160002060008a73ffffffffffffffffffffffffffffffffffffffff1673ffffffffffffffffffffffffffffffffffffffff168152602001908152602001600020546115639092919063ffffffff16565b611071565b6001905092915050565b6000610ace610ac7611069565b84846112ce565b6001905092915050565b606080600080600660008673ffffffffffffffffffffffffffffffffffffffff1673ffffffffffffffffffffffffffffffffffffffff168152602001908152602001600020600201600660008773ffffffffffffffffffffffffffffffffffffffff1673ffffffffffffffffffffffffffffffffffffffff168152602001908152602001600020600301600660008873ffffffffffffffffffffffffffffffffffffffff1673ffffffffffffffffffffffffffffffffffffffff16815260200190815260200160002060000160009054906101000a900460ff16600660008973ffffffffffffffffffffffffffffffffffffffff1673ffffffffffffffffffffffffffffffffffffffff16815260200190815260200160002060010154838054600181600116156101000203166002900480601f016020809104026020016040519081016040528092919081815260200182805460018160011615610100020316600290048015610c8a5780601f10610c5f57610100808354040283529160200191610c8a565b820191906000526020600020905b815481529060010190602001808311610c6d57829003601f168201915b50505050509350828054600181600116156101000203166002900480601f016020809104026020016040519081016040528092919081815260200182805460018160011615610100020316600290048015610d265780601f10610cfb57610100808354040283529160200191610d26565b820191906000526020600020905b815481529060010190602001808311610d0957829003601f168201915b5050505050925093509350935093509193509193565b610d4461123c565b600860008573ffffffffffffffffffffffffffffffffffffffff1673ffffffffffffffffffffffffffffffffffffffff16815260200190815260200160002060009054906101000a900460ff1615610dd1576040517f08c379a0000000000000000000000000000000000000000000000000000000008152600401610dc890611fed565b60405180910390fd5b82600660008673ffffffffffffffffffffffffffffffffffffffff1673ffffffffffffffffffffffffffffffffffffffff16815260200190815260200160002060000160006101000a81548160ff021916908360ff16021790555081600660008673ffffffffffffffffffffffffffffffffffffffff1673ffffffffffffffffffffffffffffffffffffffff1681526020019081526020016000206002019080519060200190610e829291906117ee565b5080600660008673ffffffffffffffffffffffffffffffffffffffff1673ffffffffffffffffffffffffffffffffffffffff1681526020019081526020016000206003019080519060200190610ed99291906117ee565b5042600660008673ffffffffffffffffffffffffffffffffffffffff1673ffffffffffffffffffffffffffffffffffffffff168152602001908152602001600020600101819055506001600860008673ffffffffffffffffffffffffffffffffffffffff1673ffffffffffffffffffffffffffffffffffffffff16815260200190815260200160002060006101000a81548160ff0219169083151502179055506007849080600181540180825580915050600190039060005260206000200160009091909190916101000a81548173ffffffffffffffffffffffffffffffffffffffff021916908373ffffffffffffffffffffffffffffffffffffffff16021790555050505050565b6000600160008473ffffffffffffffffffffffffffffffffffffffff1673ffffffffffffffffffffffffffffffffffffffff16815260200190815260200160002060008373ffffffffffffffffffffffffffffffffffffffff1673ffffffffffffffffffffffffffffffffffffffff16815260200190815260200160002054905092915050565b600033905090565b600073ffffffffffffffffffffffffffffffffffffffff168373ffffffffffffffffffffffffffffffffffffffff1614156110e1576040517f08c379a00000000000000000000000000000000000000000000000000000000081526004016110d89061202d565b60405180910390fd5b600073ffffffffffffffffffffffffffffffffffffffff168273ffffffffffffffffffffffffffffffffffffffff161415611151576040517f08c379a000000000000000000000000000000000000000000000000000000000815260040161114890611fad565b60405180910390fd5b80600160008573ffffffffffffffffffffffffffffffffffffffff1673ffffffffffffffffffffffffffffffffffffffff16815260200190815260200160002060008473ffffffffffffffffffffffffffffffffffffffff1673ffffffffffffffffffffffffffffffffffffffff168152602001908152602001600020819055508173ffffffffffffffffffffffffffffffffffffffff168373ffffffffffffffffffffffffffffffffffffffff167f8c5be1e5ebec7d5bd14f71427d1e84f3dd0314c0f7b2291e5b200ac8c7c3b9258360405161122f919061206d565b60405180910390a3505050565b600560019054906101000a900473ffffffffffffffffffffffffffffffffffffffff1673ffffffffffffffffffffffffffffffffffffffff163373ffffffffffffffffffffffffffffffffffffffff16146112cc576040517f08c379a00000000000000000000000000000000000000000000000000000000081526004016112c390611f8d565b60405180910390fd5b565b600073ffffffffffffffffffffffffffffffffffffffff168373ffffffffffffffffffffffffffffffffffffffff16141561133e576040517f08c379a00000000000000000000000000000000000000000000000000000000081526004016113359061200d565b60405180910390fd5b600073ffffffffffffffffffffffffffffffffffffffff168273ffffffffffffffffffffffffffffffffffffffff1614156113ae576040517f08c379a00000000000000000000000000000000000000000000000000000000081526004016113a590611f6d565b60405180910390fd5b6113b98383836117a1565b6114248160405180606001604052806026815260200161223f602691396000808773ffffffffffffffffffffffffffffffffffffffff1673ffffffffffffffffffffffffffffffffffffffff168152602001908152602001600020546115639092919063ffffffff16565b6000808573ffffffffffffffffffffffffffffffffffffffff1673ffffffffffffffffffffffffffffffffffffffff168152602001908152602001600020819055506114b7816000808573ffffffffffffffffffffffffffffffffffffffff1673ffffffffffffffffffffffffffffffffffffffff168152602001908152602001600020546115b890919063ffffffff16565b6000808473ffffffffffffffffffffffffffffffffffffffff1673ffffffffffffffffffffffffffffffffffffffff168152602001908152602001600020819055508173ffffffffffffffffffffffffffffffffffffffff168373ffffffffffffffffffffffffffffffffffffffff167fddf252ad1be2c89b69c2b068fc378daa952ba7f163c4a11628f55a4df523b3ef83604051611556919061206d565b60405180910390a3505050565b60008383111582906115ab576040517f08c379a00000000000000000000000000000000000000000000000000000000081526004016115a29190611ef8565b60405180910390fd5b5082840390509392505050565b600080828401905083811015611603576040517f08c379a00000000000000000000000000000000000000000000000000000000081526004016115fa90611fcd565b60405180910390fd5b8091505092915050565b600073ffffffffffffffffffffffffffffffffffffffff168273ffffffffffffffffffffffffffffffffffffffff16141561167d576040517f08c379a00000000000000000000000000000000000000000000000000000000081526004016116749061204d565b60405180910390fd5b611689600083836117a1565b61169e816002546115b890919063ffffffff16565b6002819055506116f5816000808573ffffffffffffffffffffffffffffffffffffffff1673ffffffffffffffffffffffffffffffffffffffff168152602001908152602001600020546115b890919063ffffffff16565b6000808473ffffffffffffffffffffffffffffffffffffffff1673ffffffffffffffffffffffffffffffffffffffff168152602001908152602001600020819055508173ffffffffffffffffffffffffffffffffffffffff16600073ffffffffffffffffffffffffffffffffffffffff167fddf252ad1be2c89b69c2b068fc378daa952ba7f163c4a11628f55a4df523b3ef83604051611795919061206d565b60405180910390a35050565b505050565b50805460018160011615610100020316600290046000825580601f106117cc57506117eb565b601f0160209004906000526020600020908101906117ea919061186e565b5b50565b828054600181600116156101000203166002900490600052602060002090601f016020900481019282601f1061182f57805160ff191683800117855561185d565b8280016001018555821561185d579182015b8281111561185c578251825591602001919060010190611841565b5b50905061186a919061186e565b5090565b61189091905b8082111561188c576000816000905550600101611874565b5090565b90565b6000813590506118a2816121f9565b92915050565b600082601f8301126118b957600080fd5b81356118cc6118c7826120d0565b6120a3565b915080825260208301602083018583830111156118e857600080fd5b6118f38382846121a6565b50505092915050565b60008135905061190b81612210565b92915050565b60008135905061192081612227565b92915050565b60006020828403121561193857600080fd5b600061194684828501611893565b91505092915050565b6000806040838503121561196257600080fd5b600061197085828601611893565b925050602061198185828601611893565b9150509250929050565b6000806000606084860312156119a057600080fd5b60006119ae86828701611893565b93505060206119bf86828701611893565b92505060406119d0868287016118fc565b9150509250925092565b600080604083850312156119ed57600080fd5b60006119fb85828601611893565b9250506020611a0c858286016118fc565b9150509250929050565b60008060408385031215611a2957600080fd5b6000611a3785828601611893565b9250506020611a4885828601611911565b9150509250929050565b60008060008060808587031215611a6857600080fd5b6000611a7687828801611893565b9450506020611a8787828801611911565b935050604085013567ffffffffffffffff811115611aa457600080fd5b611ab0878288016118a8565b925050606085013567ffffffffffffffff811115611acd57600080fd5b611ad9878288016118a8565b91505092959194509250565b600060208284031215611af757600080fd5b6000611b05848285016118fc565b91505092915050565b6000611b1a8383611b26565b60208301905092915050565b611b2f81612151565b82525050565b611b3e81612151565b82525050565b6000611b4f8261210c565b611b59818561212f565b9350611b64836120fc565b8060005b83811015611b95578151611b7c8882611b0e565b9750611b8783612122565b925050600181019050611b68565b5085935050505092915050565b611bab81612163565b82525050565b6000611bbc82612117565b611bc68185612140565b9350611bd68185602086016121b5565b611bdf816121e8565b840191505092915050565b6000611bf7602383612140565b91507f45524332303a207472616e7366657220746f20746865207a65726f206164647260008301527f65737300000000000000000000000000000000000000000000000000000000006020830152604082019050919050565b6000611c5d601783612140565b91507f4f6e6c79206d616e6167657220686173206163636573730000000000000000006000830152602082019050919050565b6000611c9d602283612140565b91507f45524332303a20617070726f766520746f20746865207a65726f20616464726560008301527f73730000000000000000000000000000000000000000000000000000000000006020830152604082019050919050565b6000611d03601b83612140565b91507f536166654d6174683a206164646974696f6e206f766572666c6f7700000000006000830152602082019050919050565b6000611d43601483612140565b91507f417373657420616c7265616479206578697374730000000000000000000000006000830152602082019050919050565b6000611d83602583612140565b91507f45524332303a207472616e736665722066726f6d20746865207a65726f20616460008301527f64726573730000000000000000000000000000000000000000000000000000006020830152604082019050919050565b6000611de9602483612140565b91507f45524332303a20617070726f76652066726f6d20746865207a65726f2061646460008301527f72657373000000000000000000000000000000000000000000000000000000006020830152604082019050919050565b6000611e4f601f83612140565b91507f45524332303a206d696e7420746f20746865207a65726f2061646472657373006000830152602082019050919050565b611e8b8161218f565b82525050565b611e9a81612199565b82525050565b6000602082019050611eb56000830184611b35565b92915050565b60006020820190508181036000830152611ed58184611b44565b905092915050565b6000602082019050611ef26000830184611ba2565b92915050565b60006020820190508181036000830152611f128184611bb1565b905092915050565b60006080820190508181036000830152611f348187611bb1565b90508181036020830152611f488186611bb1565b9050611f576040830185611e91565b611f646060830184611e82565b95945050505050565b60006020820190508181036000830152611f8681611bea565b9050919050565b60006020820190508181036000830152611fa681611c50565b9050919050565b60006020820190508181036000830152611fc681611c90565b9050919050565b60006020820190508181036000830152611fe681611cf6565b9050919050565b6000602082019050818103600083015261200681611d36565b9050919050565b6000602082019050818103600083015261202681611d76565b9050919050565b6000602082019050818103600083015261204681611ddc565b9050919050565b6000602082019050818103600083015261206681611e42565b9050919050565b60006020820190506120826000830184611e82565b92915050565b600060208201905061209d6000830184611e91565b92915050565b6000604051905081810181811067ffffffffffffffff821117156120c657600080fd5b8060405250919050565b600067ffffffffffffffff8211156120e757600080fd5b601f19601f8301169050602081019050919050565b6000819050602082019050919050565b600081519050919050565b600081519050919050565b6000602082019050919050565b600082825260208201905092915050565b600082825260208201905092915050565b600061215c8261216f565b9050919050565b60008115159050919050565b600073ffffffffffffffffffffffffffffffffffffffff82169050919050565b6000819050919050565b600060ff82169050919050565b82818337600083830152505050565b60005b838110156121d35780820151818401526020810190506121b8565b838111156121e2576000848401525b50505050565b6000601f19601f8301169050919050565b61220281612151565b811461220d57600080fd5b50565b6122198161218f565b811461222457600080fd5b50565b61223081612199565b811461223b57600080fd5b5056fe45524332303a207472616e7366657220616d6f756e7420657863656564732062616c616e636545524332303a207472616e7366657220616d6f756e74206578636565647320616c6c6f77616e636545524332303a2064656372656173656420616c6c6f77616e63652062656c6f77207a65726fa2646970667358221220f156911873ef0e7d6e5a05df1439de666252bfc995556a9e25ec21a41556e6db64736f6c634300060a0033",
  "immutableReferences": {},
  "source": "/*\n    Copyright 2020 InvestingSnippets.\n\n    Licensed under the Apache License, Version 2.0 (the \"License\");\n    you may not use this file except in compliance with the License.\n    You may obtain a copy of the License at\n    http://www.apache.org/licenses/LICENSE-2.0\n\n    Unless required by applicable law or agreed to in writing, software\n    distributed under the License is distributed on an \"AS IS\" BASIS,\n    WITHOUT WARRANTIES OR CONDITIONS OF ANY KIND, either express or implied.\n    See the License for the specific language governing permissions and\n    limitations under the License.\n\n    SPDX-License-Identifier: Apache License, Version 2.0\n*/\n\npragma solidity 0.6.10;\npragma experimental \"ABIEncoderV2\";\n\nimport { Address } from \"@openzeppelin/contracts/utils/Address.sol\";\nimport { ERC20 } from \"@openzeppelin/contracts/token/ERC20/ERC20.sol\";\nimport { SafeMath } from \"@openzeppelin/contracts/math/SafeMath.sol\";\nimport { SignedSafeMath } from \"@openzeppelin/contracts/math/SignedSafeMath.sol\";\n\ncontract PortfolioToken is ERC20 {\n    using Address for address;\n    using SafeMath for uint256;\n    using SignedSafeMath for int256;\n\n    address PortfolioManager;\n\n    struct Asset {\n        uint8 weight; // weight in the Portfolio\n        uint timeStamp; // last updated\n        string name;\n        string symbol;\n    }\n\n    mapping ( address => Asset ) assets; // this allows to store tokens by their ethereum address\n    address[] public allAssets; // a directory of all the token addresses in the fund\n    mapping(address => bool) public isResource;\n\n    int256 private strikePrice;\n\n    constructor(\n        int256 _strikePrice,\n        string memory _name,\n        string memory _symbol\n    )\n        public\n        ERC20(_name, _symbol)\n    {\n        PortfolioManager = msg.sender;\n        strikePrice = _strikePrice;\n    }\n\n    modifier onlyManager() {\n        _validateOnlyManager();\n        _;\n    }\n\n    function mint(address _account, uint256 _quantity) public {\n        _mint(_account, _quantity);\n    }\n\n    function addAsset(address _assetAddress, uint8 _weight, string memory _name, string memory _symbol) external onlyManager {\n        require(!isResource[_assetAddress], \"Asset already exists\"); // not adding true/false val in struct to save gas\n        assets[_assetAddress].weight = _weight;\n        assets[_assetAddress].name = _name;\n        assets[_assetAddress].symbol = _symbol;\n        assets[_assetAddress].timeStamp = block.timestamp;\n        isResource[_assetAddress] = true;\n        allAssets.push(_assetAddress);\n    }\n\n    function editAsset(address _assetAddress, uint8 _weight) external onlyManager {\n        assets[_assetAddress].weight = _weight;\n        assets[_assetAddress].timeStamp = block.timestamp;\n    }\n\n    function removeAsset(address _assetAddress) external onlyManager {\n        delete assets[_assetAddress];\n        // allAssets = allAssets.remove(_assetAddress);\n        isResource[_assetAddress] = false;\n    }\n\n    function getAssets() external view returns(address[] memory) {\n        return allAssets;\n    }\n\n    function getAssetInfo(address _assetAddress) external view returns(string memory name, string memory symbol, uint8 weight, uint timeStamp) {\n        return (assets[_assetAddress].name, assets[_assetAddress].symbol, assets[_assetAddress].weight, assets[_assetAddress].timeStamp);\n    } \n\n    function _validateOnlyManager() internal view {\n        require(msg.sender == PortfolioManager, \"Only manager has access\");\n    }\n}",
  "sourcePath": "/app/contracts/PortfolioToken.sol",
  "compiler": {
    "name": "solc",
    "version": "0.6.10+commit.00c0fcaf.Emscripten.clang"
  },
  "schemaVersion": "3.3.3",
  "updatedAt": "2021-02-21T10:25:21.518Z",
  "networkType": "ethereum",
  "devdoc": {
    "methods": {
      "allowance(address,address)": {
        "details": "See {IERC20-allowance}."
      },
      "approve(address,uint256)": {
        "details": "See {IERC20-approve}. Requirements: - `spender` cannot be the zero address."
      },
      "balanceOf(address)": {
        "details": "See {IERC20-balanceOf}."
      },
      "decimals()": {
        "details": "Returns the number of decimals used to get its user representation. For example, if `decimals` equals `2`, a balance of `505` tokens should be displayed to a user as `5,05` (`505 / 10 ** 2`). Tokens usually opt for a value of 18, imitating the relationship between Ether and Wei. This is the value {ERC20} uses, unless {_setupDecimals} is called. NOTE: This information is only used for _display_ purposes: it in no way affects any of the arithmetic of the contract, including {IERC20-balanceOf} and {IERC20-transfer}."
      },
      "decreaseAllowance(address,uint256)": {
        "details": "Atomically decreases the allowance granted to `spender` by the caller. This is an alternative to {approve} that can be used as a mitigation for problems described in {IERC20-approve}. Emits an {Approval} event indicating the updated allowance. Requirements: - `spender` cannot be the zero address. - `spender` must have allowance for the caller of at least `subtractedValue`."
      },
      "increaseAllowance(address,uint256)": {
        "details": "Atomically increases the allowance granted to `spender` by the caller. This is an alternative to {approve} that can be used as a mitigation for problems described in {IERC20-approve}. Emits an {Approval} event indicating the updated allowance. Requirements: - `spender` cannot be the zero address."
      },
      "name()": {
        "details": "Returns the name of the token."
      },
      "symbol()": {
        "details": "Returns the symbol of the token, usually a shorter version of the name."
      },
      "totalSupply()": {
        "details": "See {IERC20-totalSupply}."
      },
      "transfer(address,uint256)": {
        "details": "See {IERC20-transfer}. Requirements: - `recipient` cannot be the zero address. - the caller must have a balance of at least `amount`."
      },
      "transferFrom(address,address,uint256)": {
        "details": "See {IERC20-transferFrom}. Emits an {Approval} event indicating the updated allowance. This is not required by the EIP. See the note at the beginning of {ERC20}. Requirements: - `sender` and `recipient` cannot be the zero address. - `sender` must have a balance of at least `amount`. - the caller must have allowance for ``sender``'s tokens of at least `amount`."
      }
    }
  },
  "userdoc": {
    "methods": {}
  }
}